:020000020000FC
:10000000112722273327442755276627772781E0A2
:1000100098E30FE50DBF04E00EBF0FEF07BB08BB71
:10002000002701BB0FEF00BB809B2DD0819B35D0FB
:10003000829B3ED0839B45D0849B4DD0859B55D0E1
:10004000879B5DC0581729F47395481729F4639569
:1000500003C0481709F46395A62FB72FAB0FA91754
:100060005CF4E2CF1FEF2FEF35E13A95F1F72A95D7
:10007000D9F71A95C1F708951FEF18BB220F220F69
:10008000209528BBFFCF809901C0FDCF11601F755F
:10009000312F309538BB51E00895819901C0FDCFD3
:1000A00012601F73312F309538BB239541E00895BE
:1000B000829901C0FDCF1D7F312F309538BB40E0C4
:1000C0000895839901C0FDCF1260312F309538BB60
:1000D000239541E00895849901C0FDCF106212720A
:1000E000312F309538BB50E00895859901C0FDCF80
:1000F00010641176312F309538BB40E00895879910
:1001000001C0FDCF10681078312F309538BB50E01A
:0401100040E0FFCFFD
:00000001FF
