:020000020000FC
:1000000000C00FE50DBF02E00EBFB0E8A6E2D0E8E9
:10001000C7E546E050E61A2F2C2F120F140F10934D
:1000200060001D2F2D2F121F80E090E0891F80930C
:100030007000150F109380000FEF07BB0FEF08BB88
:1000400009D00DD011D015D019D01ED023D00FEF6C
:1000500008BB34C0EA2FE095E8BB22D00895EB2F0F
:10006000E095E8BB1DD00895EC2FE095E8BB18D0D3
:100070000895ED2FE095E8BB13D00895E09160005E
:10008000E095E8BB0DD00895E0918000E095E8BBD5
:1000900007D00895E0917000E095E8BB01D0089585
:1000A00012E01A95F1F708951DEE2DEE3EEE3A9509
:1000B000F1F72A95D9F71A95C1F70895002701BBE2
:1000C0000FEF00BB8199FECF819BFECFC3DFC7DF5F
:1000D0000FEF08BB8299FECF829BFECFC5DFC9DF41
:1000E0000FEF08BB14D0E091600016D010D0E09163
:1000F00060001ED00CD0E09180000ED008D0E091BE
:10010000800016D004D0C6DF0FEF08BBFFCF839965
:10011000FECF839BFECF0895E095EE0FEE0FEE0F1E
:10012000EE0FE695E695E695E695E06FE8BB089557
:10013000E095E695E695E695E695E06FE8BB0895CF
:00000001FF
